{
  "_format": "hh-sol-artifact-1",
  "contractName": "DigiTalk",
  "sourceName": "contracts/DigiTalk.sol",
  "abi": [
    {
      "inputs": [],
      "stateMutability": "nonpayable",
      "type": "constructor"
    },
    {
      "anonymous": false,
      "inputs": [
        {
          "indexed": false,
          "internalType": "uint256",
          "name": "id",
          "type": "uint256"
        },
        {
          "indexed": false,
          "internalType": "string",
          "name": "userId",
          "type": "string"
        },
        {
          "indexed": false,
          "internalType": "uint256",
          "name": "tipAmount",
          "type": "uint256"
        },
        {
          "indexed": false,
          "internalType": "string",
          "name": "description",
          "type": "string"
        },
        {
          "indexed": false,
          "internalType": "string",
          "name": "hash",
          "type": "string"
        },
        {
          "indexed": false,
          "internalType": "string",
          "name": "fileName",
          "type": "string"
        },
        {
          "indexed": false,
          "internalType": "string",
          "name": "status",
          "type": "string"
        },
        {
          "indexed": false,
          "internalType": "string",
          "name": "extension",
          "type": "string"
        },
        {
          "indexed": false,
          "internalType": "address payable",
          "name": "auther",
          "type": "address"
        }
      ],
      "name": "Post",
      "type": "event"
    },
    {
      "anonymous": false,
      "inputs": [
        {
          "indexed": false,
          "internalType": "address",
          "name": "sender",
          "type": "address"
        },
        {
          "indexed": false,
          "internalType": "address payable",
          "name": "receiver",
          "type": "address"
        },
        {
          "indexed": false,
          "internalType": "uint256",
          "name": "tipAmount",
          "type": "uint256"
        },
        {
          "indexed": false,
          "internalType": "uint256",
          "name": "timestamp",
          "type": "uint256"
        }
      ],
      "name": "Tiptransaction",
      "type": "event"
    },
    {
      "inputs": [
        {
          "internalType": "string",
          "name": "_description",
          "type": "string"
        },
        {
          "internalType": "string",
          "name": "_status",
          "type": "string"
        },
        {
          "internalType": "string",
          "name": "hash",
          "type": "string"
        },
        {
          "internalType": "string",
          "name": "file_name",
          "type": "string"
        },
        {
          "internalType": "string",
          "name": "_userId",
          "type": "string"
        },
        {
          "internalType": "string",
          "name": "_extension",
          "type": "string"
        }
      ],
      "name": "createPost",
      "outputs": [],
      "stateMutability": "nonpayable",
      "type": "function"
    },
    {
      "inputs": [],
      "name": "getAllPosts",
      "outputs": [
        {
          "components": [
            {
              "internalType": "uint256",
              "name": "id",
              "type": "uint256"
            },
            {
              "internalType": "string",
              "name": "userId",
              "type": "string"
            },
            {
              "internalType": "uint256",
              "name": "tipAmount",
              "type": "uint256"
            },
            {
              "internalType": "string",
              "name": "description",
              "type": "string"
            },
            {
              "internalType": "string",
              "name": "hash",
              "type": "string"
            },
            {
              "internalType": "string",
              "name": "fileName",
              "type": "string"
            },
            {
              "internalType": "string",
              "name": "status",
              "type": "string"
            },
            {
              "internalType": "string",
              "name": "extension",
              "type": "string"
            },
            {
              "internalType": "address payable",
              "name": "auther",
              "type": "address"
            }
          ],
          "internalType": "struct DigiTalk.PostStruct[]",
          "name": "",
          "type": "tuple[]"
        }
      ],
      "stateMutability": "view",
      "type": "function"
    },
    {
      "inputs": [],
      "name": "getAlltipTransactions",
      "outputs": [
        {
          "components": [
            {
              "internalType": "address",
              "name": "sender",
              "type": "address"
            },
            {
              "internalType": "address payable",
              "name": "receiver",
              "type": "address"
            },
            {
              "internalType": "uint256",
              "name": "tipAmount",
              "type": "uint256"
            },
            {
              "internalType": "uint256",
              "name": "timestamp",
              "type": "uint256"
            }
          ],
          "internalType": "struct DigiTalk.TiptransactionStruct[]",
          "name": "",
          "type": "tuple[]"
        }
      ],
      "stateMutability": "view",
      "type": "function"
    },
    {
      "inputs": [
        {
          "internalType": "address",
          "name": "_requireAddress",
          "type": "address"
        }
      ],
      "name": "getPostsByAddress",
      "outputs": [
        {
          "components": [
            {
              "internalType": "uint256",
              "name": "id",
              "type": "uint256"
            },
            {
              "internalType": "string",
              "name": "userId",
              "type": "string"
            },
            {
              "internalType": "uint256",
              "name": "tipAmount",
              "type": "uint256"
            },
            {
              "internalType": "string",
              "name": "description",
              "type": "string"
            },
            {
              "internalType": "string",
              "name": "hash",
              "type": "string"
            },
            {
              "internalType": "string",
              "name": "fileName",
              "type": "string"
            },
            {
              "internalType": "string",
              "name": "status",
              "type": "string"
            },
            {
              "internalType": "string",
              "name": "extension",
              "type": "string"
            },
            {
              "internalType": "address payable",
              "name": "auther",
              "type": "address"
            }
          ],
          "internalType": "struct DigiTalk.PostStruct[]",
          "name": "",
          "type": "tuple[]"
        }
      ],
      "stateMutability": "view",
      "type": "function"
    },
    {
      "inputs": [
        {
          "internalType": "string",
          "name": "_extension",
          "type": "string"
        }
      ],
      "name": "getPostsByExtension",
      "outputs": [
        {
          "components": [
            {
              "internalType": "uint256",
              "name": "id",
              "type": "uint256"
            },
            {
              "internalType": "string",
              "name": "userId",
              "type": "string"
            },
            {
              "internalType": "uint256",
              "name": "tipAmount",
              "type": "uint256"
            },
            {
              "internalType": "string",
              "name": "description",
              "type": "string"
            },
            {
              "internalType": "string",
              "name": "hash",
              "type": "string"
            },
            {
              "internalType": "string",
              "name": "fileName",
              "type": "string"
            },
            {
              "internalType": "string",
              "name": "status",
              "type": "string"
            },
            {
              "internalType": "string",
              "name": "extension",
              "type": "string"
            },
            {
              "internalType": "address payable",
              "name": "auther",
              "type": "address"
            }
          ],
          "internalType": "struct DigiTalk.PostStruct[]",
          "name": "",
          "type": "tuple[]"
        }
      ],
      "stateMutability": "view",
      "type": "function"
    },
    {
      "inputs": [],
      "name": "getPostsCount",
      "outputs": [
        {
          "internalType": "uint256",
          "name": "",
          "type": "uint256"
        }
      ],
      "stateMutability": "view",
      "type": "function"
    },
    {
      "inputs": [],
      "name": "gettipTransactionsCount",
      "outputs": [
        {
          "internalType": "uint256",
          "name": "",
          "type": "uint256"
        }
      ],
      "stateMutability": "view",
      "type": "function"
    },
    {
      "inputs": [],
      "name": "name",
      "outputs": [
        {
          "internalType": "string",
          "name": "",
          "type": "string"
        }
      ],
      "stateMutability": "view",
      "type": "function"
    },
    {
      "inputs": [
        {
          "internalType": "uint256",
          "name": "_id",
          "type": "uint256"
        },
        {
          "internalType": "uint256",
          "name": "amount",
          "type": "uint256"
        }
      ],
      "name": "tipOwner",
      "outputs": [],
      "stateMutability": "nonpayable",
      "type": "function"
    }
  ],
  "bytecode": "0x60806040523480156200001157600080fd5b506040518060400160405280600881526020017f4469676954616c6b00000000000000000000000000000000000000000000000081525060009081620000589190620002e9565b5060006001819055506000600281905550620003d0565b600081519050919050565b7f4e487b7100000000000000000000000000000000000000000000000000000000600052604160045260246000fd5b7f4e487b7100000000000000000000000000000000000000000000000000000000600052602260045260246000fd5b60006002820490506001821680620000f157607f821691505b602082108103620001075762000106620000a9565b5b50919050565b60008190508160005260206000209050919050565b60006020601f8301049050919050565b600082821b905092915050565b600060088302620001717fffffffffffffffffffffffffffffffffffffffffffffffffffffffffffffffff8262000132565b6200017d868362000132565b95508019841693508086168417925050509392505050565b6000819050919050565b6000819050919050565b6000620001ca620001c4620001be8462000195565b6200019f565b62000195565b9050919050565b6000819050919050565b620001e683620001a9565b620001fe620001f582620001d1565b8484546200013f565b825550505050565b600090565b6200021562000206565b62000222818484620001db565b505050565b5b818110156200024a576200023e6000826200020b565b60018101905062000228565b5050565b601f821115620002995762000263816200010d565b6200026e8462000122565b810160208510156200027e578190505b620002966200028d8562000122565b83018262000227565b50505b505050565b600082821c905092915050565b6000620002be600019846008026200029e565b1980831691505092915050565b6000620002d98383620002ab565b9150826002028217905092915050565b620002f4826200006f565b67ffffffffffffffff81111562000310576200030f6200007a565b5b6200031c8254620000d8565b620003298282856200024e565b600060209050601f8311600181146200036157600084156200034c578287015190505b620003588582620002cb565b865550620003c8565b601f19841662000371866200010d565b60005b828110156200039b5784890151825560018201915060208501945060208101905062000374565b86831015620003bb5784890151620003b7601f891682620002ab565b8355505b6001600288020188555050505b505050505050565b6129eb80620003e06000396000f3fe608060405234801561001057600080fd5b50600436106100935760003560e01c80633604f462116100665780633604f462146101345780637c46bde214610152578063836248821461016e578063a97628541461018c578063e3c7ac88146101aa57610093565b806306fdde03146100985780631f72be31146100b657806330561100146100e657806333f290fa14610104575b600080fd5b6100a06101c6565b6040516100ad9190611bf3565b60405180910390f35b6100d060048036038101906100cb9190611c87565b610254565b6040516100dd9190611ee2565b60405180910390f35b6100ee610789565b6040516100fb9190611ee2565b60405180910390f35b61011e60048036038101906101199190612039565b610bbf565b60405161012b9190611ee2565b60405180910390f35b61013c6110c3565b6040516101499190612091565b60405180910390f35b61016c600480360381019061016791906120ac565b6110cd565b005b61017661129d565b6040516101839190612091565b60405180910390f35b6101946112a7565b6040516101a191906122f4565b60405180910390f35b6101c460048036038101906101bf9190612342565b6113c6565b005b600080546101d3906123b1565b80601f01602080910402602001604051908101604052809291908181526020018280546101ff906123b1565b801561024c5780601f106102215761010080835404028352916020019161024c565b820191906000526020600020905b81548152906001019060200180831161022f57829003601f168201915b505050505081565b6060600060038054905067ffffffffffffffff81111561027757610276611f0e565b5b6040519080825280602002602001820160405280156102b057816020015b61029d611b01565b8152602001906001900390816102955790505b5090506000805b60015481101561077e578473ffffffffffffffffffffffffffffffffffffffff16600382815481106102ec576102eb6123e2565b5b906000526020600020906009020160080160009054906101000a900473ffffffffffffffffffffffffffffffffffffffff1673ffffffffffffffffffffffffffffffffffffffff160361075c576003818154811061034d5761034c6123e2565b5b90600052602060002090600902016040518061012001604052908160008201548152602001600182018054610381906123b1565b80601f01602080910402602001604051908101604052809291908181526020018280546103ad906123b1565b80156103fa5780601f106103cf576101008083540402835291602001916103fa565b820191906000526020600020905b8154815290600101906020018083116103dd57829003601f168201915b505050505081526020016002820154815260200160038201805461041d906123b1565b80601f0160208091040260200160405190810160405280929190818152602001828054610449906123b1565b80156104965780601f1061046b57610100808354040283529160200191610496565b820191906000526020600020905b81548152906001019060200180831161047957829003601f168201915b505050505081526020016004820180546104af906123b1565b80601f01602080910402602001604051908101604052809291908181526020018280546104db906123b1565b80156105285780601f106104fd57610100808354040283529160200191610528565b820191906000526020600020905b81548152906001019060200180831161050b57829003601f168201915b50505050508152602001600582018054610541906123b1565b80601f016020809104026020016040519081016040528092919081815260200182805461056d906123b1565b80156105ba5780601f1061058f576101008083540402835291602001916105ba565b820191906000526020600020905b81548152906001019060200180831161059d57829003601f168201915b505050505081526020016006820180546105d3906123b1565b80601f01602080910402602001604051908101604052809291908181526020018280546105ff906123b1565b801561064c5780601f106106215761010080835404028352916020019161064c565b820191906000526020600020905b81548152906001019060200180831161062f57829003601f168201915b50505050508152602001600782018054610665906123b1565b80601f0160208091040260200160405190810160405280929190818152602001828054610691906123b1565b80156106de5780601f106106b3576101008083540402835291602001916106de565b820191906000526020600020905b8154815290600101906020018083116106c157829003601f168201915b505050505081526020016008820160009054906101000a900473ffffffffffffffffffffffffffffffffffffffff1673ffffffffffffffffffffffffffffffffffffffff1673ffffffffffffffffffffffffffffffffffffffff16815250508383815181106107505761074f6123e2565b5b60200260200101819052505b6001826107699190612440565b9150808061077690612474565b9150506102b7565b508192505050919050565b60606003805480602002602001604051908101604052809291908181526020016000905b82821015610bb6578382906000526020600020906009020160405180610120016040529081600082015481526020016001820180546107eb906123b1565b80601f0160208091040260200160405190810160405280929190818152602001828054610817906123b1565b80156108645780601f1061083957610100808354040283529160200191610864565b820191906000526020600020905b81548152906001019060200180831161084757829003601f168201915b5050505050815260200160028201548152602001600382018054610887906123b1565b80601f01602080910402602001604051908101604052809291908181526020018280546108b3906123b1565b80156109005780601f106108d557610100808354040283529160200191610900565b820191906000526020600020905b8154815290600101906020018083116108e357829003601f168201915b50505050508152602001600482018054610919906123b1565b80601f0160208091040260200160405190810160405280929190818152602001828054610945906123b1565b80156109925780601f1061096757610100808354040283529160200191610992565b820191906000526020600020905b81548152906001019060200180831161097557829003601f168201915b505050505081526020016005820180546109ab906123b1565b80601f01602080910402602001604051908101604052809291908181526020018280546109d7906123b1565b8015610a245780601f106109f957610100808354040283529160200191610a24565b820191906000526020600020905b815481529060010190602001808311610a0757829003601f168201915b50505050508152602001600682018054610a3d906123b1565b80601f0160208091040260200160405190810160405280929190818152602001828054610a69906123b1565b8015610ab65780601f10610a8b57610100808354040283529160200191610ab6565b820191906000526020600020905b815481529060010190602001808311610a9957829003601f168201915b50505050508152602001600782018054610acf906123b1565b80601f0160208091040260200160405190810160405280929190818152602001828054610afb906123b1565b8015610b485780601f10610b1d57610100808354040283529160200191610b48565b820191906000526020600020905b815481529060010190602001808311610b2b57829003601f168201915b505050505081526020016008820160009054906101000a900473ffffffffffffffffffffffffffffffffffffffff1673ffffffffffffffffffffffffffffffffffffffff1673ffffffffffffffffffffffffffffffffffffffff1681525050815260200190600101906107ad565b50505050905090565b6060600060038054905067ffffffffffffffff811115610be257610be1611f0e565b5b604051908082528060200260200182016040528015610c1b57816020015b610c08611b01565b815260200190600190039081610c005790505b5090506000805b6001548110156110b857848051906020012060038281548110610c4857610c476123e2565b5b9060005260206000209060090201600701604051610c66919061255f565b6040518091039020036110965760038181548110610c8757610c866123e2565b5b90600052602060002090600902016040518061012001604052908160008201548152602001600182018054610cbb906123b1565b80601f0160208091040260200160405190810160405280929190818152602001828054610ce7906123b1565b8015610d345780601f10610d0957610100808354040283529160200191610d34565b820191906000526020600020905b815481529060010190602001808311610d1757829003601f168201915b5050505050815260200160028201548152602001600382018054610d57906123b1565b80601f0160208091040260200160405190810160405280929190818152602001828054610d83906123b1565b8015610dd05780601f10610da557610100808354040283529160200191610dd0565b820191906000526020600020905b815481529060010190602001808311610db357829003601f168201915b50505050508152602001600482018054610de9906123b1565b80601f0160208091040260200160405190810160405280929190818152602001828054610e15906123b1565b8015610e625780601f10610e3757610100808354040283529160200191610e62565b820191906000526020600020905b815481529060010190602001808311610e4557829003601f168201915b50505050508152602001600582018054610e7b906123b1565b80601f0160208091040260200160405190810160405280929190818152602001828054610ea7906123b1565b8015610ef45780601f10610ec957610100808354040283529160200191610ef4565b820191906000526020600020905b815481529060010190602001808311610ed757829003601f168201915b50505050508152602001600682018054610f0d906123b1565b80601f0160208091040260200160405190810160405280929190818152602001828054610f39906123b1565b8015610f865780601f10610f5b57610100808354040283529160200191610f86565b820191906000526020600020905b815481529060010190602001808311610f6957829003601f168201915b50505050508152602001600782018054610f9f906123b1565b80601f0160208091040260200160405190810160405280929190818152602001828054610fcb906123b1565b80156110185780601f10610fed57610100808354040283529160200191611018565b820191906000526020600020905b815481529060010190602001808311610ffb57829003601f168201915b505050505081526020016008820160009054906101000a900473ffffffffffffffffffffffffffffffffffffffff1673ffffffffffffffffffffffffffffffffffffffff1673ffffffffffffffffffffffffffffffffffffffff168152505083838151811061108a576110896123e2565b5b60200260200101819052505b6001826110a39190612440565b915080806110b090612474565b915050610c22565b508192505050919050565b6000600254905090565b600160008154809291906110e090612474565b919050555060036040518061012001604052806001548152602001848152602001600081526020018881526020018681526020018581526020018781526020018381526020013373ffffffffffffffffffffffffffffffffffffffff1681525090806001815401808255809150506001900390600052602060002090600902016000909190919091506000820151816000015560208201518160010190816111889190612722565b506040820151816002015560608201518160030190816111a89190612722565b5060808201518160040190816111be9190612722565b5060a08201518160050190816111d49190612722565b5060c08201518160060190816111ea9190612722565b5060e08201518160070190816112009190612722565b506101008201518160080160006101000a81548173ffffffffffffffffffffffffffffffffffffffff021916908373ffffffffffffffffffffffffffffffffffffffff16021790555050507faa496ef9c1f440fcbe60de68005aac1b43667f18548f0b7d640feb640b44cf036001548360008988888b883360405161128d9998979695949392919061283e565b60405180910390a1505050505050565b6000600154905090565b60606004805480602002602001604051908101604052809291908181526020016000905b828210156113bd57838290600052602060002090600402016040518060800160405290816000820160009054906101000a900473ffffffffffffffffffffffffffffffffffffffff1673ffffffffffffffffffffffffffffffffffffffff1673ffffffffffffffffffffffffffffffffffffffff1681526020016001820160009054906101000a900473ffffffffffffffffffffffffffffffffffffffff1673ffffffffffffffffffffffffffffffffffffffff1673ffffffffffffffffffffffffffffffffffffffff16815260200160028201548152602001600382015481525050815260200190600101906112cb565b50505050905090565b600082101580156113d957506001548211155b611418576040517f08c379a000000000000000000000000000000000000000000000000000000000815260040161140f90612941565b60405180910390fd5b60016002600082825461142b9190612440565b92505081905550600060038381548110611448576114476123e2565b5b9060005260206000209060090201604051806101200160405290816000820154815260200160018201805461147c906123b1565b80601f01602080910402602001604051908101604052809291908181526020018280546114a8906123b1565b80156114f55780601f106114ca576101008083540402835291602001916114f5565b820191906000526020600020905b8154815290600101906020018083116114d857829003601f168201915b5050505050815260200160028201548152602001600382018054611518906123b1565b80601f0160208091040260200160405190810160405280929190818152602001828054611544906123b1565b80156115915780601f1061156657610100808354040283529160200191611591565b820191906000526020600020905b81548152906001019060200180831161157457829003601f168201915b505050505081526020016004820180546115aa906123b1565b80601f01602080910402602001604051908101604052809291908181526020018280546115d6906123b1565b80156116235780601f106115f857610100808354040283529160200191611623565b820191906000526020600020905b81548152906001019060200180831161160657829003601f168201915b5050505050815260200160058201805461163c906123b1565b80601f0160208091040260200160405190810160405280929190818152602001828054611668906123b1565b80156116b55780601f1061168a576101008083540402835291602001916116b5565b820191906000526020600020905b81548152906001019060200180831161169857829003601f168201915b505050505081526020016006820180546116ce906123b1565b80601f01602080910402602001604051908101604052809291908181526020018280546116fa906123b1565b80156117475780601f1061171c57610100808354040283529160200191611747565b820191906000526020600020905b81548152906001019060200180831161172a57829003601f168201915b50505050508152602001600782018054611760906123b1565b80601f016020809104026020016040519081016040528092919081815260200182805461178c906123b1565b80156117d95780601f106117ae576101008083540402835291602001916117d9565b820191906000526020600020905b8154815290600101906020018083116117bc57829003601f168201915b505050505081526020016008820160009054906101000a900473ffffffffffffffffffffffffffffffffffffffff1673ffffffffffffffffffffffffffffffffffffffff1673ffffffffffffffffffffffffffffffffffffffff1681525050905081816040015161184a9190612440565b8160400181815250508060038481548110611868576118676123e2565b5b90600052602060002090600902016000820151816000015560208201518160010190816118959190612722565b506040820151816002015560608201518160030190816118b59190612722565b5060808201518160040190816118cb9190612722565b5060a08201518160050190816118e19190612722565b5060c08201518160060190816118f79190612722565b5060e082015181600701908161190d9190612722565b506101008201518160080160006101000a81548173ffffffffffffffffffffffffffffffffffffffff021916908373ffffffffffffffffffffffffffffffffffffffff160217905550905050600460405180608001604052803373ffffffffffffffffffffffffffffffffffffffff16815260200183610100015173ffffffffffffffffffffffffffffffffffffffff16815260200184815260200142815250908060018154018082558091505060019003906000526020600020906004020160009091909190915060008201518160000160006101000a81548173ffffffffffffffffffffffffffffffffffffffff021916908373ffffffffffffffffffffffffffffffffffffffff16021790555060208201518160010160006101000a81548173ffffffffffffffffffffffffffffffffffffffff021916908373ffffffffffffffffffffffffffffffffffffffff160217905550604082015181600201556060820151816003015550507f30915cf6f916ac56075aa3c0a983980f7bbe59a34a5ca2f52dc96b0667f9922d3360038581548110611ab057611aaf6123e2565b5b906000526020600020906009020160080160009054906101000a900473ffffffffffffffffffffffffffffffffffffffff168442604051611af49493929190612970565b60405180910390a1505050565b6040518061012001604052806000815260200160608152602001600081526020016060815260200160608152602001606081526020016060815260200160608152602001600073ffffffffffffffffffffffffffffffffffffffff1681525090565b600081519050919050565b600082825260208201905092915050565b60005b83811015611b9d578082015181840152602081019050611b82565b60008484015250505050565b6000601f19601f8301169050919050565b6000611bc582611b63565b611bcf8185611b6e565b9350611bdf818560208601611b7f565b611be881611ba9565b840191505092915050565b60006020820190508181036000830152611c0d8184611bba565b905092915050565b6000604051905090565b600080fd5b600080fd5b600073ffffffffffffffffffffffffffffffffffffffff82169050919050565b6000611c5482611c29565b9050919050565b611c6481611c49565b8114611c6f57600080fd5b50565b600081359050611c8181611c5b565b92915050565b600060208284031215611c9d57611c9c611c1f565b5b6000611cab84828501611c72565b91505092915050565b600081519050919050565b600082825260208201905092915050565b6000819050602082019050919050565b6000819050919050565b611cf381611ce0565b82525050565b600082825260208201905092915050565b6000611d1582611b63565b611d1f8185611cf9565b9350611d2f818560208601611b7f565b611d3881611ba9565b840191505092915050565b6000611d4e82611c29565b9050919050565b611d5e81611d43565b82525050565b600061012083016000830151611d7d6000860182611cea565b5060208301518482036020860152611d958282611d0a565b9150506040830151611daa6040860182611cea565b5060608301518482036060860152611dc28282611d0a565b91505060808301518482036080860152611ddc8282611d0a565b91505060a083015184820360a0860152611df68282611d0a565b91505060c083015184820360c0860152611e108282611d0a565b91505060e083015184820360e0860152611e2a8282611d0a565b915050610100830151611e41610100860182611d55565b508091505092915050565b6000611e588383611d64565b905092915050565b6000602082019050919050565b6000611e7882611cb4565b611e828185611cbf565b935083602082028501611e9485611cd0565b8060005b85811015611ed05784840389528151611eb18582611e4c565b9450611ebc83611e60565b925060208a01995050600181019050611e98565b50829750879550505050505092915050565b60006020820190508181036000830152611efc8184611e6d565b905092915050565b600080fd5b600080fd5b7f4e487b7100000000000000000000000000000000000000000000000000000000600052604160045260246000fd5b611f4682611ba9565b810181811067ffffffffffffffff82111715611f6557611f64611f0e565b5b80604052505050565b6000611f78611c15565b9050611f848282611f3d565b919050565b600067ffffffffffffffff821115611fa457611fa3611f0e565b5b611fad82611ba9565b9050602081019050919050565b82818337600083830152505050565b6000611fdc611fd784611f89565b611f6e565b905082815260208101848484011115611ff857611ff7611f09565b5b612003848285611fba565b509392505050565b600082601f8301126120205761201f611f04565b5b8135612030848260208601611fc9565b91505092915050565b60006020828403121561204f5761204e611c1f565b5b600082013567ffffffffffffffff81111561206d5761206c611c24565b5b6120798482850161200b565b91505092915050565b61208b81611ce0565b82525050565b60006020820190506120a66000830184612082565b92915050565b60008060008060008060c087890312156120c9576120c8611c1f565b5b600087013567ffffffffffffffff8111156120e7576120e6611c24565b5b6120f389828a0161200b565b965050602087013567ffffffffffffffff81111561211457612113611c24565b5b61212089828a0161200b565b955050604087013567ffffffffffffffff81111561214157612140611c24565b5b61214d89828a0161200b565b945050606087013567ffffffffffffffff81111561216e5761216d611c24565b5b61217a89828a0161200b565b935050608087013567ffffffffffffffff81111561219b5761219a611c24565b5b6121a789828a0161200b565b92505060a087013567ffffffffffffffff8111156121c8576121c7611c24565b5b6121d489828a0161200b565b9150509295509295509295565b600081519050919050565b600082825260208201905092915050565b6000819050602082019050919050565b61221681611c49565b82525050565b608082016000820151612232600085018261220d565b5060208201516122456020850182611d55565b5060408201516122586040850182611cea565b50606082015161226b6060850182611cea565b50505050565b600061227d838361221c565b60808301905092915050565b6000602082019050919050565b60006122a1826121e1565b6122ab81856121ec565b93506122b6836121fd565b8060005b838110156122e75781516122ce8882612271565b97506122d983612289565b9250506001810190506122ba565b5085935050505092915050565b6000602082019050818103600083015261230e8184612296565b905092915050565b61231f81611ce0565b811461232a57600080fd5b50565b60008135905061233c81612316565b92915050565b6000806040838503121561235957612358611c1f565b5b60006123678582860161232d565b92505060206123788582860161232d565b9150509250929050565b7f4e487b7100000000000000000000000000000000000000000000000000000000600052602260045260246000fd5b600060028204905060018216806123c957607f821691505b6020821081036123dc576123db612382565b5b50919050565b7f4e487b7100000000000000000000000000000000000000000000000000000000600052603260045260246000fd5b7f4e487b7100000000000000000000000000000000000000000000000000000000600052601160045260246000fd5b600061244b82611ce0565b915061245683611ce0565b925082820190508082111561246e5761246d612411565b5b92915050565b600061247f82611ce0565b91507fffffffffffffffffffffffffffffffffffffffffffffffffffffffffffffffff82036124b1576124b0612411565b5b600182019050919050565b600081905092915050565b60008190508160005260206000209050919050565b600081546124e9816123b1565b6124f381866124bc565b9450600182166000811461250e576001811461252357612556565b60ff1983168652811515820286019350612556565b61252c856124c7565b60005b8381101561254e5781548189015260018201915060208101905061252f565b838801955050505b50505092915050565b600061256b82846124dc565b915081905092915050565b60008190508160005260206000209050919050565b60006020601f8301049050919050565b600082821b905092915050565b6000600883026125d87fffffffffffffffffffffffffffffffffffffffffffffffffffffffffffffffff8261259b565b6125e2868361259b565b95508019841693508086168417925050509392505050565b6000819050919050565b600061261f61261a61261584611ce0565b6125fa565b611ce0565b9050919050565b6000819050919050565b61263983612604565b61264d61264582612626565b8484546125a8565b825550505050565b600090565b612662612655565b61266d818484612630565b505050565b5b818110156126915761268660008261265a565b600181019050612673565b5050565b601f8211156126d6576126a781612576565b6126b08461258b565b810160208510156126bf578190505b6126d36126cb8561258b565b830182612672565b50505b505050565b600082821c905092915050565b60006126f9600019846008026126db565b1980831691505092915050565b600061271283836126e8565b9150826002028217905092915050565b61272b82611b63565b67ffffffffffffffff81111561274457612743611f0e565b5b61274e82546123b1565b612759828285612695565b600060209050601f83116001811461278c576000841561277a578287015190505b6127848582612706565b8655506127ec565b601f19841661279a86612576565b60005b828110156127c25784890151825560018201915060208501945060208101905061279d565b868310156127df57848901516127db601f8916826126e8565b8355505b6001600288020188555050505b505050505050565b6000819050919050565b600061281961281461280f846127f4565b6125fa565b611ce0565b9050919050565b612829816127fe565b82525050565b61283881611d43565b82525050565b600061012082019050612854600083018c612082565b8181036020830152612866818b611bba565b9050612875604083018a612820565b81810360608301526128878189611bba565b9050818103608083015261289b8188611bba565b905081810360a08301526128af8187611bba565b905081810360c08301526128c38186611bba565b905081810360e08301526128d78185611bba565b90506128e761010083018461282f565b9a9950505050505050505050565b7f4964206973206e6f7420636f7272656374000000000000000000000000000000600082015250565b600061292b601183611b6e565b9150612936826128f5565b602082019050919050565b6000602082019050818103600083015261295a8161291e565b9050919050565b61296a81611c49565b82525050565b60006080820190506129856000830187612961565b612992602083018661282f565b61299f6040830185612082565b6129ac6060830184612082565b9594505050505056fea2646970667358221220c895987c2f5f540d8eaa5678d90052bbf2b481964e3f73b1d286b6394c086bcd64736f6c63430008110033",
  "linkReferences": {},
  "deployedLinkReferences": {}
}